:100000001AC033C032C031C030C02FC02EC02DC086
:100010002CC02BC02AC029C028C027C0E3C125C0DE
:1000200024C023C022C021C020C01FC056C230C27D
:100030001CC01BC0D80211241FBECFEFCDBFDFE311
:10004000DEBF2FE3A0E8BFE301C01D92A53CB207CD
:10005000E1F710E0CBE1D0E003C02197FE01F0D240
:10006000CA31D107D1F767D2F1C2CACFFC01508D96
:10007000418D252F30E0842F90E0821B930B541785
:1000800010F00F96089501970895FC0196898789CD
:10009000981761F0A789AE0FBF2FB11D5B968C91A9
:1000A00097899F5F9F70978B90E008958FEF9FEFE8
:1000B0000895FC0196898789981731F08789E80FA0
:1000C000F11D838D90E008958FEF9FEF0895FC015F
:1000D00096892789892F90E04096821B91098F701D
:1000E00099270895CF93DF93EC01E881F981028489
:1000F000F385E02D0995EC85FD8586818F738683D8
:10010000EC85FD8585818F7585838F898E8B1D8A12
:10011000DF91CF910895CF93DF93FC01908D818D76
:10012000A485B585981309C015968C9115978F7D78
:1001300015968C93DF91CF910895C18DCE0FDF2F4F
:10014000D11D9BA5818D8F5F8F70818F80E4149668
:100150008C93A485B58512969C93908D818D981370
:10016000E9CF0484F585E02D85818F7D8583E2CFFD
:10017000DC011C96ED91FC910FB607FE07C02581AE
:1001800025FF04C020911101222319F0248125FDAF
:10019000C2CF08950F931F93CF93DF93EC0181E0BB
:1001A0008D8B988D898D981311C0EC85FD85848188
:1001B00085FF0CC080E48483EC85FD85628381E04B
:1001C00090E0DF91CF911F910F910895062F188D28
:1001D0001F5F1F70898D811303C0CE01C9DFFACF65
:1001E000E88DEC0FFD2FF11D03A7188FEC85FD8521
:1001F000858180628583E3CFCF93DF93EC018D8986
:10020000882359F0EC85FD85858185FD03C08481B7
:1002100086FD03C0CE01ACDFF5CFDF91CF9108950D
:10022000AF92BF92CF92DF92EF92FF920F931F9304
:10023000CF93DF936C017B018B01040F151FEB0142
:100240005E01AE18BF08C017D10759F06991D601F9
:10025000ED91FC910190F081E02DC6010995892B6B
:1002600079F7C501DF91CF911F910F91FF90EF902A
:10027000DF90CF90BF90AF90089581E00895DC01AA
:10028000ED91FC910684F785E02D23E030E00994A0
:100290007F928F929F92AF92BF92CF92DF92EF9216
:1002A000FF920F931F93CF93DF93EC014A015B0101
:1002B000722E8D89882339F0E881F9810088F189CF
:1002C000E02DCE010995EC88F12C00E0811458EB6B
:1002D00095065BE0A506B10428F0B694A794979420
:1002E000879402E01D8A1FB7F894CC84DD8460E017
:1002F00074EB84EC94E0A501940180D1D6011896AA
:100300002D933C931997EC85FD857782EC85FD85CF
:100310008681897F806C802B8683EC85FD85858135
:1003200080688583909101028B898095892397014C
:10033000220F331FF901EE0DFF1DEC0FFD1F9089F9
:10034000892B809301028685863028F590E0FC0198
:10035000EA58F94740814F3FF1F0FC01E059F94775
:10036000E081B0E2EB9FF0011124FC5F86599947D0
:10037000DC015C91B0E0A0E05F3F29F0CF01409646
:10038000DC01A50FB11D9FB7F89442838C91886062
:100390008C9345839FBFE20EF31ECE0DDF1D8F852C
:1003A000863088F490E0FC01EA58F94720812F3F1D
:1003B00051F080599947DC01EC91B0E2EB9FF001DC
:1003C0001124FC5F21831FBFDF91CF911F910F91FB
:1003D000FF90EF90DF90CF90BF90AF909F908F9065
:1003E0007F9008951F920F920FB60F9211242F93B2
:1003F0003F934F935F936F938F939F93AF93BF936D
:100400008091C13F9091C23FA091C33FB091C43F42
:100410004091BF3F5091C03F9A01205D3C4F283E24
:1004200063E0360728F0285E33400196A11DB11D18
:100430002093BF3F3093C03F8093C13F9093C23F12
:10044000A093C33FB093C43F8091BB3F9091BC3F0A
:10045000A091BD3FB091BE3F0196A11DB11D8093FB
:10046000BB3F9093BC3FA093BD3FB093BE3F81E0A4
:1004700080938D0ABF91AF919F918F916F915F9102
:100480004F913F912F910F900FBE0F901F90189595
:100490001F920F920FB60F9211242F933F934F93F9
:1004A0005F936F937F938F939F93AF93BF93EF93DC
:1004B000FF9380E89FE32FDEFF91EF91BF91AF9113
:1004C0009F918F917F916F915F914F913F912F916C
:1004D0000F900FBE0F901F9018951F920F920FB69E
:1004E0000F9211242F938F939F93EF93FF93E0919B
:1004F0008C3FF0918D3F818181FD1BC09081809167
:10050000963F8F5F8F702091973F821741F0E09167
:10051000963FF0E0E058F04C938F8093963FFF9128
:10052000EF919F918F912F910F900FBE0F901F9081
:1005300018958081F4CF88ED90E084BF909361009E
:1005400083E58093020680E18093050680E2809334
:1005500003068091000681608093000681E080930D
:10056000030A9EEF9093260A9093270A9BE09093AC
:10057000000A809302022DEF31E02093AE0A3093FF
:10058000AF0A80938C0A1092810A80E88093820AD5
:1005900081E18093800A789440E855E260E070E061
:1005A00080E89FE36CDE61E480E89FE3F3DDFBCF4E
:1005B000E0E8FFE31282138288EE93E0A0E0B0E06F
:1005C00084839583A683B78384E596E880839183AB
:1005D00080E098E08487958781E086871786108A77
:1005E00093E0918B92E0928B838B148A158A168A02
:1005F000178A108E118E87E1828F0895A1E21A2E3C
:10060000AA1BBB1BFD010DC0AA1FBB1FEE1FFF1FB6
:10061000A217B307E407F50720F0A21BB30BE40B06
:10062000F50B661F771F881F991F1A9469F760954D
:100630007095809590959B01AC01BD01CF01089507
:10064000EE0FFF1F0590F491E02D0994F894FFCF71
:1006500000000000CA001001670045005900FC00BE
:100660003F01480172003D01360006070102030008
:0C067000000000000000408002040801AF
:00000001FF
